{
  "contractName": "BasicCoinManager",
  "abi": [
    {
      "constant": false,
      "inputs": [
        {
          "name": "_new",
          "type": "address"
        }
      ],
      "name": "setOwner",
      "outputs": [],
      "payable": false,
      "stateMutability": "nonpayable",
      "type": "function"
    },
    {
      "constant": true,
      "inputs": [],
      "name": "owner",
      "outputs": [
        {
          "name": "",
          "type": "address"
        }
      ],
      "payable": false,
      "stateMutability": "view",
      "type": "function"
    },
    {
      "constant": true,
      "inputs": [],
      "name": "BASE",
      "outputs": [
        {
          "name": "",
          "type": "uint256"
        }
      ],
      "payable": false,
      "stateMutability": "view",
      "type": "function"
    },
    {
      "anonymous": false,
      "inputs": [
        {
          "indexed": true,
          "name": "owner",
          "type": "address"
        },
        {
          "indexed": true,
          "name": "tokenreg",
          "type": "address"
        },
        {
          "indexed": true,
          "name": "coin",
          "type": "address"
        }
      ],
      "name": "Created",
      "type": "event"
    },
    {
      "anonymous": false,
      "inputs": [
        {
          "indexed": true,
          "name": "old",
          "type": "address"
        },
        {
          "indexed": true,
          "name": "current",
          "type": "address"
        }
      ],
      "name": "NewOwner",
      "type": "event"
    },
    {
      "constant": true,
      "inputs": [],
      "name": "count",
      "outputs": [
        {
          "name": "",
          "type": "uint256"
        }
      ],
      "payable": false,
      "stateMutability": "view",
      "type": "function"
    },
    {
      "constant": true,
      "inputs": [
        {
          "name": "_index",
          "type": "uint256"
        }
      ],
      "name": "get",
      "outputs": [
        {
          "name": "coin",
          "type": "address"
        },
        {
          "name": "owner",
          "type": "address"
        },
        {
          "name": "tokenreg",
          "type": "address"
        }
      ],
      "payable": false,
      "stateMutability": "view",
      "type": "function"
    },
    {
      "constant": true,
      "inputs": [
        {
          "name": "_owner",
          "type": "address"
        }
      ],
      "name": "countByOwner",
      "outputs": [
        {
          "name": "",
          "type": "uint256"
        }
      ],
      "payable": false,
      "stateMutability": "view",
      "type": "function"
    },
    {
      "constant": true,
      "inputs": [
        {
          "name": "_owner",
          "type": "address"
        },
        {
          "name": "_index",
          "type": "uint256"
        }
      ],
      "name": "getByOwner",
      "outputs": [
        {
          "name": "coin",
          "type": "address"
        },
        {
          "name": "owner",
          "type": "address"
        },
        {
          "name": "tokenreg",
          "type": "address"
        }
      ],
      "payable": false,
      "stateMutability": "view",
      "type": "function"
    },
    {
      "constant": false,
      "inputs": [
        {
          "name": "_totalSupply",
          "type": "uint256"
        },
        {
          "name": "_tla",
          "type": "string"
        },
        {
          "name": "_name",
          "type": "string"
        },
        {
          "name": "_tokenreg",
          "type": "address"
        }
      ],
      "name": "deploy",
      "outputs": [
        {
          "name": "",
          "type": "bool"
        }
      ],
      "payable": true,
      "stateMutability": "payable",
      "type": "function"
    },
    {
      "constant": false,
      "inputs": [],
      "name": "drain",
      "outputs": [],
      "payable": false,
      "stateMutability": "nonpayable",
      "type": "function"
    }
  ],
  "bytecode": "0x6080604052336000806101000a81548173ffffffffffffffffffffffffffffffffffffffff021916908373ffffffffffffffffffffffffffffffffffffffff16021790555034801561005057600080fd5b50611a8a806100606000396000f300608060405260043610610099576000357c0100000000000000000000000000000000000000000000000000000000900463ffffffff168063061ea8cc1461009e57806306661abd146100f557806313af4035146101205780638da5cb5b146101635780639507d39a146101ba5780639890220b1461028d578063acfdfd1c146102a4578063c00ca38314610388578063ec342ad01461047b575b600080fd5b3480156100aa57600080fd5b506100df600480360381019080803573ffffffffffffffffffffffffffffffffffffffff1690602001909291905050506104a6565b6040518082815260200191505060405180910390f35b34801561010157600080fd5b5061010a6104f2565b6040518082815260200191505060405180910390f35b34801561012c57600080fd5b50610161600480360381019080803573ffffffffffffffffffffffffffffffffffffffff1690602001909291905050506104ff565b005b34801561016f57600080fd5b50610178610618565b604051808273ffffffffffffffffffffffffffffffffffffffff1673ffffffffffffffffffffffffffffffffffffffff16815260200191505060405180910390f35b3480156101c657600080fd5b506101e56004803603810190808035906020019092919050505061063d565b604051808473ffffffffffffffffffffffffffffffffffffffff1673ffffffffffffffffffffffffffffffffffffffff1681526020018373ffffffffffffffffffffffffffffffffffffffff1673ffffffffffffffffffffffffffffffffffffffff1681526020018273ffffffffffffffffffffffffffffffffffffffff1673ffffffffffffffffffffffffffffffffffffffff168152602001935050505060405180910390f35b34801561029957600080fd5b506102a26106df565b005b61036e60048036038101908080359060200190929190803590602001908201803590602001908080601f0160208091040260200160405190810160405280939291908181526020018383808284378201915050505050509192919290803590602001908201803590602001908080601f0160208091040260200160405190810160405280939291908181526020018383808284378201915050505050509192919290803573ffffffffffffffffffffffffffffffffffffffff16906020019092919050505061079a565b604051808215151515815260200191505060405180910390f35b34801561039457600080fd5b506103d3600480360381019080803573ffffffffffffffffffffffffffffffffffffffff16906020019092919080359060200190929190505050610d3b565b604051808473ffffffffffffffffffffffffffffffffffffffff1673ffffffffffffffffffffffffffffffffffffffff1681526020018373ffffffffffffffffffffffffffffffffffffffff1673ffffffffffffffffffffffffffffffffffffffff1681526020018273ffffffffffffffffffffffffffffffffffffffff1673ffffffffffffffffffffffffffffffffffffffff168152602001935050505060405180910390f35b34801561048757600080fd5b50610490610dac565b6040518082815260200191505060405180910390f35b6000600260008373ffffffffffffffffffffffffffffffffffffffff1673ffffffffffffffffffffffffffffffffffffffff168152602001908152602001600020805490509050919050565b6000600180549050905090565b6000809054906101000a900473ffffffffffffffffffffffffffffffffffffffff1673ffffffffffffffffffffffffffffffffffffffff163373ffffffffffffffffffffffffffffffffffffffff1614151561055a57600080fd5b8073ffffffffffffffffffffffffffffffffffffffff166000809054906101000a900473ffffffffffffffffffffffffffffffffffffffff1673ffffffffffffffffffffffffffffffffffffffff167f70aea8d848e8a90fb7661b227dc522eb6395c3dac71b63cb59edd5c9899b236460405160405180910390a3806000806101000a81548173ffffffffffffffffffffffffffffffffffffffff021916908373ffffffffffffffffffffffffffffffffffffffff16021790555050565b6000809054906101000a900473ffffffffffffffffffffffffffffffffffffffff1681565b60008060008060018581548110151561065257fe5b906000526020600020906003020190508060000160009054906101000a900473ffffffffffffffffffffffffffffffffffffffff1693508060010160009054906101000a900473ffffffffffffffffffffffffffffffffffffffff1692508060020160009054906101000a900473ffffffffffffffffffffffffffffffffffffffff169150509193909250565b6000809054906101000a900473ffffffffffffffffffffffffffffffffffffffff1673ffffffffffffffffffffffffffffffffffffffff163373ffffffffffffffffffffffffffffffffffffffff1614151561073a57600080fd5b3373ffffffffffffffffffffffffffffffffffffffff166108fc3073ffffffffffffffffffffffffffffffffffffffff16319081150290604051600060405180830381858888f19350505050158015610797573d6000803e3d6000fd5b50565b600080600080600085935088336107af610db3565b808381526020018273ffffffffffffffffffffffffffffffffffffffff1673ffffffffffffffffffffffffffffffffffffffff16815260200192505050604051809103906000f080158015610808573d6000803e3d6000fd5b509250610814336104a6565b91508373ffffffffffffffffffffffffffffffffffffffff1663ddca3f436040518163ffffffff167c0100000000000000000000000000000000000000000000000000000000028152600401602060405180830381600087803b15801561087a57600080fd5b505af115801561088e573d6000803e3d6000fd5b505050506040513d60208110156108a457600080fd5b8101908080519060200190929190505050905060018201600260003373ffffffffffffffffffffffffffffffffffffffff1673ffffffffffffffffffffffffffffffffffffffff168152602001908152602001600020816109059190610dc3565b50600180549050600260003373ffffffffffffffffffffffffffffffffffffffff1673ffffffffffffffffffffffffffffffffffffffff1681526020019081526020016000208381548110151561095857fe5b906000526020600020018190555060016060604051908101604052808573ffffffffffffffffffffffffffffffffffffffff1681526020013373ffffffffffffffffffffffffffffffffffffffff1681526020018673ffffffffffffffffffffffffffffffffffffffff168152509080600181540180825580915050906001820390600052602060002090600302016000909192909190915060008201518160000160006101000a81548173ffffffffffffffffffffffffffffffffffffffff021916908373ffffffffffffffffffffffffffffffffffffffff16021790555060208201518160010160006101000a81548173ffffffffffffffffffffffffffffffffffffffff021916908373ffffffffffffffffffffffffffffffffffffffff16021790555060408201518160020160006101000a81548173ffffffffffffffffffffffffffffffffffffffff021916908373ffffffffffffffffffffffffffffffffffffffff1602179055505050508373ffffffffffffffffffffffffffffffffffffffff16637b1a547c82858b620f42408c336040518763ffffffff167c0100000000000000000000000000000000000000000000000000000000028152600401808673ffffffffffffffffffffffffffffffffffffffff1673ffffffffffffffffffffffffffffffffffffffff16815260200180602001858152602001806020018473ffffffffffffffffffffffffffffffffffffffff1673ffffffffffffffffffffffffffffffffffffffff168152602001838103835287818151815260200191508051906020019080838360005b83811015610bc7578082015181840152602081019050610bac565b50505050905090810190601f168015610bf45780820380516001836020036101000a031916815260200191505b50838103825285818151815260200191508051906020019080838360005b83811015610c2d578082015181840152602081019050610c12565b50505050905090810190601f168015610c5a5780820380516001836020036101000a031916815260200191505b509750505050505050506020604051808303818588803b158015610c7d57600080fd5b505af1158015610c91573d6000803e3d6000fd5b50505050506040513d6020811015610ca857600080fd5b8101908080519060200190929190505050508273ffffffffffffffffffffffffffffffffffffffff168473ffffffffffffffffffffffffffffffffffffffff163373ffffffffffffffffffffffffffffffffffffffff167f454b0172f64812df0cd504c2bd7df7aab8ff328a54d946b4bd0fa7c527adf9cc60405160405180910390a46001945050505050949350505050565b6000806000610d9f600260008773ffffffffffffffffffffffffffffffffffffffff1673ffffffffffffffffffffffffffffffffffffffff16815260200190815260200160002085815481101515610d8f57fe5b906000526020600020015461063d565b9250925092509250925092565b620f424081565b604051610c4a80610e1583390190565b815481835581811115610dea57818360005260206000209182019101610de99190610def565b5b505050565b610e1191905b80821115610e0d576000816000905550600101610df5565b5090565b9056006080604052336000806101000a81548173ffffffffffffffffffffffffffffffffffffffff021916908373ffffffffffffffffffffffffffffffffffffffff16021790555034801561005057600080fd5b50604051604080610c4a83398101806040528101908080519060200190929190805190602001909291905050508160008111151561008d57600080fd5b82600181905550816000806101000a81548173ffffffffffffffffffffffffffffffffffffffff021916908373ffffffffffffffffffffffffffffffffffffffff160217905550600154600260008473ffffffffffffffffffffffffffffffffffffffff1673ffffffffffffffffffffffffffffffffffffffff16815260200190815260200160002060000181905550505050610b1b8061012f6000396000f300608060405260043610610099576000357c0100000000000000000000000000000000000000000000000000000000900463ffffffff168063095ea7b3146100ab57806313af40351461011057806318160ddd1461015357806323b872dd1461017e57806370a08231146102035780638da5cb5b1461025a578063a9059cbb146102b1578063dd62ed3e14610316578063ec342ad01461038d575b3480156100a557600080fd5b50600080fd5b3480156100b757600080fd5b506100f6600480360381019080803573ffffffffffffffffffffffffffffffffffffffff169060200190929190803590602001909291905050506103b8565b604051808215151515815260200191505060405180910390f35b34801561011c57600080fd5b50610151600480360381019080803573ffffffffffffffffffffffffffffffffffffffff1690602001909291905050506104c4565b005b34801561015f57600080fd5b506101686105dd565b6040518082815260200191505060405180910390f35b34801561018a57600080fd5b506101e9600480360381019080803573ffffffffffffffffffffffffffffffffffffffff169060200190929190803573ffffffffffffffffffffffffffffffffffffffff169060200190929190803590602001909291905050506105e3565b604051808215151515815260200191505060405180910390f35b34801561020f57600080fd5b50610244600480360381019080803573ffffffffffffffffffffffffffffffffffffffff169060200190929190505050610879565b6040518082815260200191505060405180910390f35b34801561026657600080fd5b5061026f6108c5565b604051808273ffffffffffffffffffffffffffffffffffffffff1673ffffffffffffffffffffffffffffffffffffffff16815260200191505060405180910390f35b3480156102bd57600080fd5b506102fc600480360381019080803573ffffffffffffffffffffffffffffffffffffffff169060200190929190803590602001909291905050506108ea565b604051808215151515815260200191505060405180910390f35b34801561032257600080fd5b50610377600480360381019080803573ffffffffffffffffffffffffffffffffffffffff169060200190929190803573ffffffffffffffffffffffffffffffffffffffff169060200190929190505050610a5e565b6040518082815260200191505060405180910390f35b34801561039957600080fd5b506103a2610ae8565b6040518082815260200191505060405180910390f35b600080341415156103c857600080fd5b8273ffffffffffffffffffffffffffffffffffffffff163373ffffffffffffffffffffffffffffffffffffffff167f8c5be1e5ebec7d5bd14f71427d1e84f3dd0314c0f7b2291e5b200ac8c7c3b925846040518082815260200191505060405180910390a381600260003373ffffffffffffffffffffffffffffffffffffffff1673ffffffffffffffffffffffffffffffffffffffff16815260200190815260200160002060010160008573ffffffffffffffffffffffffffffffffffffffff1673ffffffffffffffffffffffffffffffffffffffff168152602001908152602001600020600082825401925050819055506001905092915050565b6000809054906101000a900473ffffffffffffffffffffffffffffffffffffffff1673ffffffffffffffffffffffffffffffffffffffff163373ffffffffffffffffffffffffffffffffffffffff1614151561051f57600080fd5b8073ffffffffffffffffffffffffffffffffffffffff166000809054906101000a900473ffffffffffffffffffffffffffffffffffffffff1673ffffffffffffffffffffffffffffffffffffffff167f70aea8d848e8a90fb7661b227dc522eb6395c3dac71b63cb59edd5c9899b236460405160405180910390a3806000806101000a81548173ffffffffffffffffffffffffffffffffffffffff021916908373ffffffffffffffffffffffffffffffffffffffff16021790555050565b60015481565b600080341415156105f357600080fd5b838280600260008473ffffffffffffffffffffffffffffffffffffffff1673ffffffffffffffffffffffffffffffffffffffff168152602001908152602001600020600001541015151561064657600080fd5b85338580600260008573ffffffffffffffffffffffffffffffffffffffff1673ffffffffffffffffffffffffffffffffffffffff16815260200190815260200160002060010160008473ffffffffffffffffffffffffffffffffffffffff1673ffffffffffffffffffffffffffffffffffffffff16815260200190815260200160002054101515156106d757600080fd5b8773ffffffffffffffffffffffffffffffffffffffff168973ffffffffffffffffffffffffffffffffffffffff167fddf252ad1be2c89b69c2b068fc378daa952ba7f163c4a11628f55a4df523b3ef896040518082815260200191505060405180910390a386600260008b73ffffffffffffffffffffffffffffffffffffffff1673ffffffffffffffffffffffffffffffffffffffff16815260200190815260200160002060010160003373ffffffffffffffffffffffffffffffffffffffff1673ffffffffffffffffffffffffffffffffffffffff1681526020019081526020016000206000828254039250508190555086600260008b73ffffffffffffffffffffffffffffffffffffffff1673ffffffffffffffffffffffffffffffffffffffff1681526020019081526020016000206000016000828254039250508190555086600260008a73ffffffffffffffffffffffffffffffffffffffff1673ffffffffffffffffffffffffffffffffffffffff168152602001908152602001600020600001600082825401925050819055506001955050505050509392505050565b6000600260008373ffffffffffffffffffffffffffffffffffffffff1673ffffffffffffffffffffffffffffffffffffffff168152602001908152602001600020600001549050919050565b6000809054906101000a900473ffffffffffffffffffffffffffffffffffffffff1681565b600080341415156108fa57600080fd5b338280600260008473ffffffffffffffffffffffffffffffffffffffff1673ffffffffffffffffffffffffffffffffffffffff168152602001908152602001600020600001541015151561094d57600080fd5b8473ffffffffffffffffffffffffffffffffffffffff163373ffffffffffffffffffffffffffffffffffffffff167fddf252ad1be2c89b69c2b068fc378daa952ba7f163c4a11628f55a4df523b3ef866040518082815260200191505060405180910390a383600260003373ffffffffffffffffffffffffffffffffffffffff1673ffffffffffffffffffffffffffffffffffffffff1681526020019081526020016000206000016000828254039250508190555083600260008773ffffffffffffffffffffffffffffffffffffffff1673ffffffffffffffffffffffffffffffffffffffff1681526020019081526020016000206000016000828254019250508190555060019250505092915050565b6000600260008473ffffffffffffffffffffffffffffffffffffffff1673ffffffffffffffffffffffffffffffffffffffff16815260200190815260200160002060010160008373ffffffffffffffffffffffffffffffffffffffff1673ffffffffffffffffffffffffffffffffffffffff16815260200190815260200160002054905092915050565b620f4240815600a165627a7a72305820dbf871c02f3a5be9028e689dab34901c3446db5b702e27367c3217a752a7530b0029a165627a7a7230582030e025261e3fa9aa885b3d288c986382531a4ae5cb187ea4c5cb982839325f020029",
  "source": "//! The basic-coin ECR20-compliant token contract.\n//!\n//! Copyright 2016 Gavin Wood, Parity Technologies Ltd.\n//!\n//! Licensed under the Apache License, Version 2.0 (the \"License\");\n//! you may not use this file except in compliance with the License.\n//! You may obtain a copy of the License at\n//!\n//!     http://www.apache.org/licenses/LICENSE-2.0\n//!\n//! Unless required by applicable law or agreed to in writing, software\n//! distributed under the License is distributed on an \"AS IS\" BASIS,\n//! WITHOUT WARRANTIES OR CONDITIONS OF ANY KIND, either express or implied.\n//! See the License for the specific language governing permissions and\n//! limitations under the License.\n\npragma solidity ^0.4.1;\n\nimport \"./Owned.sol\";\nimport \"./Token.sol\";\nimport \"./TokenReg.sol\";\n\n\n// BasicCoin, ECR20 tokens that all belong to the owner for sending around\ncontract BasicCoin is Owned, Token {\n\t// this is as basic as can be, only the associated balance & allowances\n\tstruct Account {\n\t\tuint balance;\n\t\tmapping (address => uint) allowanceOf;\n\t}\n\n\t// the balance should be available\n\tmodifier whenOwns(address _owner, uint _amount) {\n\t\trequire(accounts[_owner].balance >= _amount);\n\t\t_;\n\t}\n\n\t// an allowance should be available\n\tmodifier whenHasAllowance(address _owner, address _spender, uint _amount) {\n\t\trequire(accounts[_owner].allowanceOf[_spender] >= _amount);\n\t\t_;\n\t}\n\n\t// no ETH should be sent with the transaction\n\tmodifier whenNoEth {\n\t\trequire(msg.value == 0);\n\t\t_;\n\t}\n\n\t// a value should be > 0\n\tmodifier whenNonZero(uint _value) {\n\t\trequire(_value > 0);\n\t\t_;\n\t}\n\n\t// the base, tokens denoted in micros\n\tuint constant public BASE = 1000000;\n\n\t// available token supply\n\tuint public totalSupply;\n\n\t// storage and mapping of all balances & allowances\n\tmapping (address => Account) accounts;\n\n\t// constructor sets the parameters of execution, _totalSupply is all units\n\tconstructor(uint _totalSupply, address _owner) whenNonZero(_totalSupply) public {\n\t\t// Non payable function. No need to check msg.value.\n\n\t\ttotalSupply = _totalSupply;\n\t\towner = _owner;\n\t\taccounts[_owner].balance = totalSupply;\n\t}\n\n\t// no default function, simple contract only, entry-level users\n\tfunction() public {\n\t\trevert();\n\t}\n\n\t// balance of a specific address\n\tfunction balanceOf(address _who) view public returns (uint256) {\n\t\treturn accounts[_who].balance;\n\t}\n\n\t// transfer\n\tfunction transfer(address _to, uint256 _value) whenNoEth whenOwns(msg.sender, _value) public returns (bool) {\n\t\temit Transfer(msg.sender, _to, _value);\n\t\taccounts[msg.sender].balance -= _value;\n\t\taccounts[_to].balance += _value;\n\n\t\treturn true;\n\t}\n\n\t// transfer via allowance\n\tfunction transferFrom(address _from, address _to, uint256 _value)\n\t\twhenNoEth\n\t\twhenOwns(_from, _value)\n\t\twhenHasAllowance(_from, msg.sender, _value)\n\t\tpublic\n\t\treturns (bool)\n\t{\n\t\temit Transfer(_from, _to, _value);\n\t\taccounts[_from].allowanceOf[msg.sender] -= _value;\n\t\taccounts[_from].balance -= _value;\n\t\taccounts[_to].balance += _value;\n\n\t\treturn true;\n\t}\n\n\t// approve allowances\n\tfunction approve(address _spender, uint256 _value) whenNoEth public returns (bool) {\n\t\temit Approval(msg.sender, _spender, _value);\n\t\taccounts[msg.sender].allowanceOf[_spender] += _value;\n\n\t\treturn true;\n\t}\n\n\t// available allowance\n\tfunction allowance(address _owner, address _spender) view public returns (uint256) {\n\t\treturn accounts[_owner].allowanceOf[_spender];\n\t}\n}\n\n\n// Manages BasicCoin instances, including the deployment & registration\ncontract BasicCoinManager is Owned {\n\t// a structure wrapping a deployed BasicCoin\n\tstruct Coin {\n\t\taddress coin;\n\t\taddress owner;\n\t\taddress tokenreg;\n\t}\n\n\t// a new BasicCoin has been deployed\n\tevent Created(address indexed owner, address indexed tokenreg, address indexed coin);\n\n\t// a list of all the deployed BasicCoins\n\tCoin[] coins;\n\n\t// all BasicCoins for a specific owner\n\tmapping (address => uint[]) ownedCoins;\n\n\t// the base, tokens denoted in micros (matches up with BasicCoin interface above)\n\tuint constant public BASE = 1000000;\n\n\t// return the number of deployed\n\tfunction count() view public returns (uint) {\n\t\treturn coins.length;\n\t}\n\n\t// get a specific deployment\n\tfunction get(uint _index) view public returns (address coin, address owner, address tokenreg) {\n\t\tCoin storage c = coins[_index];\n\n\t\tcoin = c.coin;\n\t\towner = c.owner;\n\t\ttokenreg = c.tokenreg;\n\t}\n\n\t// returns the number of coins for a specific owner\n\tfunction countByOwner(address _owner) view public returns (uint) {\n\t\treturn ownedCoins[_owner].length;\n\t}\n\n\t// returns a specific index by owner\n\tfunction getByOwner(address _owner, uint _index) view public returns (address coin, address owner, address tokenreg) {\n\t\treturn get(ownedCoins[_owner][_index]);\n\t}\n\n\t// deploy a new BasicCoin on the blockchain\n\tfunction deploy(\n\t\tuint _totalSupply,\n\t\tstring _tla,\n\t\tstring _name,\n\t\taddress _tokenreg)\n\t\tpayable public returns (bool)\n\t{\n\t\tTokenReg tokenreg = TokenReg(_tokenreg);\n\t\tBasicCoin coin = new BasicCoin(_totalSupply, msg.sender);\n\n\t\tuint ownerCount = countByOwner(msg.sender);\n\t\tuint fee = tokenreg.fee();\n\n\t\townedCoins[msg.sender].length = ownerCount + 1;\n\t\townedCoins[msg.sender][ownerCount] = coins.length;\n\t\tcoins.push(Coin(coin, msg.sender, tokenreg));\n\t\ttokenreg.registerAs.value(fee)(\n\t\t\tcoin,\n\t\t\t_tla,\n\t\t\tBASE,\n\t\t\t_name,\n\t\t\tmsg.sender);\n\n\t\temit Created(msg.sender, tokenreg, coin);\n\n\t\treturn true;\n\t}\n\n\t// owner can withdraw all collected funds\n\tfunction drain() onlyOwner public {\n\t\tmsg.sender.transfer(address(this).balance);\n\t}\n}\n",
  "sourcePath": "/home/sorpaas/repos/token-registry/contracts/BasicCoin.sol",
  "compiler": {
    "name": "solc",
    "version": "0.4.23+commit.124ca40d.Emscripten.clang"
  },
  "schemaVersion": "2.0.0",
  "updatedAt": "2018-05-09T12:04:35.736Z"
}