{
  "contractName": "TokenReg",
  "abi": [
    {
      "constant": false,
      "inputs": [
        {
          "name": "_new",
          "type": "address"
        }
      ],
      "name": "setOwner",
      "outputs": [],
      "payable": false,
      "stateMutability": "nonpayable",
      "type": "function"
    },
    {
      "constant": true,
      "inputs": [],
      "name": "owner",
      "outputs": [
        {
          "name": "",
          "type": "address"
        }
      ],
      "payable": false,
      "stateMutability": "view",
      "type": "function"
    },
    {
      "constant": true,
      "inputs": [],
      "name": "fee",
      "outputs": [
        {
          "name": "",
          "type": "uint256"
        }
      ],
      "payable": false,
      "stateMutability": "view",
      "type": "function"
    },
    {
      "anonymous": false,
      "inputs": [
        {
          "indexed": true,
          "name": "tla",
          "type": "string"
        },
        {
          "indexed": true,
          "name": "id",
          "type": "uint256"
        },
        {
          "indexed": false,
          "name": "addr",
          "type": "address"
        },
        {
          "indexed": false,
          "name": "name",
          "type": "string"
        }
      ],
      "name": "Registered",
      "type": "event"
    },
    {
      "anonymous": false,
      "inputs": [
        {
          "indexed": true,
          "name": "tla",
          "type": "string"
        },
        {
          "indexed": true,
          "name": "id",
          "type": "uint256"
        }
      ],
      "name": "Unregistered",
      "type": "event"
    },
    {
      "anonymous": false,
      "inputs": [
        {
          "indexed": true,
          "name": "id",
          "type": "uint256"
        },
        {
          "indexed": true,
          "name": "key",
          "type": "bytes32"
        },
        {
          "indexed": false,
          "name": "value",
          "type": "bytes32"
        }
      ],
      "name": "MetaChanged",
      "type": "event"
    },
    {
      "anonymous": false,
      "inputs": [
        {
          "indexed": true,
          "name": "old",
          "type": "address"
        },
        {
          "indexed": true,
          "name": "current",
          "type": "address"
        }
      ],
      "name": "NewOwner",
      "type": "event"
    },
    {
      "constant": false,
      "inputs": [
        {
          "name": "_addr",
          "type": "address"
        },
        {
          "name": "_tla",
          "type": "string"
        },
        {
          "name": "_base",
          "type": "uint256"
        },
        {
          "name": "_name",
          "type": "string"
        }
      ],
      "name": "register",
      "outputs": [
        {
          "name": "",
          "type": "bool"
        }
      ],
      "payable": true,
      "stateMutability": "payable",
      "type": "function"
    },
    {
      "constant": false,
      "inputs": [
        {
          "name": "_addr",
          "type": "address"
        },
        {
          "name": "_tla",
          "type": "string"
        },
        {
          "name": "_base",
          "type": "uint256"
        },
        {
          "name": "_name",
          "type": "string"
        },
        {
          "name": "_owner",
          "type": "address"
        }
      ],
      "name": "registerAs",
      "outputs": [
        {
          "name": "",
          "type": "bool"
        }
      ],
      "payable": true,
      "stateMutability": "payable",
      "type": "function"
    },
    {
      "constant": false,
      "inputs": [
        {
          "name": "_id",
          "type": "uint256"
        }
      ],
      "name": "unregister",
      "outputs": [],
      "payable": false,
      "stateMutability": "nonpayable",
      "type": "function"
    },
    {
      "constant": false,
      "inputs": [
        {
          "name": "_fee",
          "type": "uint256"
        }
      ],
      "name": "setFee",
      "outputs": [],
      "payable": false,
      "stateMutability": "nonpayable",
      "type": "function"
    },
    {
      "constant": true,
      "inputs": [],
      "name": "tokenCount",
      "outputs": [
        {
          "name": "",
          "type": "uint256"
        }
      ],
      "payable": false,
      "stateMutability": "view",
      "type": "function"
    },
    {
      "constant": true,
      "inputs": [
        {
          "name": "_id",
          "type": "uint256"
        }
      ],
      "name": "token",
      "outputs": [
        {
          "name": "addr",
          "type": "address"
        },
        {
          "name": "tla",
          "type": "string"
        },
        {
          "name": "base",
          "type": "uint256"
        },
        {
          "name": "name",
          "type": "string"
        },
        {
          "name": "owner",
          "type": "address"
        }
      ],
      "payable": false,
      "stateMutability": "view",
      "type": "function"
    },
    {
      "constant": true,
      "inputs": [
        {
          "name": "_addr",
          "type": "address"
        }
      ],
      "name": "fromAddress",
      "outputs": [
        {
          "name": "id",
          "type": "uint256"
        },
        {
          "name": "tla",
          "type": "string"
        },
        {
          "name": "base",
          "type": "uint256"
        },
        {
          "name": "name",
          "type": "string"
        },
        {
          "name": "owner",
          "type": "address"
        }
      ],
      "payable": false,
      "stateMutability": "view",
      "type": "function"
    },
    {
      "constant": true,
      "inputs": [
        {
          "name": "_tla",
          "type": "string"
        }
      ],
      "name": "fromTLA",
      "outputs": [
        {
          "name": "id",
          "type": "uint256"
        },
        {
          "name": "addr",
          "type": "address"
        },
        {
          "name": "base",
          "type": "uint256"
        },
        {
          "name": "name",
          "type": "string"
        },
        {
          "name": "owner",
          "type": "address"
        }
      ],
      "payable": false,
      "stateMutability": "view",
      "type": "function"
    },
    {
      "constant": true,
      "inputs": [
        {
          "name": "_id",
          "type": "uint256"
        },
        {
          "name": "_key",
          "type": "bytes32"
        }
      ],
      "name": "meta",
      "outputs": [
        {
          "name": "",
          "type": "bytes32"
        }
      ],
      "payable": false,
      "stateMutability": "view",
      "type": "function"
    },
    {
      "constant": false,
      "inputs": [
        {
          "name": "_id",
          "type": "uint256"
        },
        {
          "name": "_key",
          "type": "bytes32"
        },
        {
          "name": "_value",
          "type": "bytes32"
        }
      ],
      "name": "setMeta",
      "outputs": [],
      "payable": false,
      "stateMutability": "nonpayable",
      "type": "function"
    },
    {
      "constant": false,
      "inputs": [],
      "name": "drain",
      "outputs": [],
      "payable": false,
      "stateMutability": "nonpayable",
      "type": "function"
    }
  ],
  "bytecode": "0x6080604052336000806101000a81548173ffffffffffffffffffffffffffffffffffffffff021916908373ffffffffffffffffffffffffffffffffffffffff160217905550670de0b6b3a764000060045534801561005c57600080fd5b50611a3f8061006c6000396000f3006080604052600436106100d0576000357c0100000000000000000000000000000000000000000000000000000000900463ffffffff168063044215c6146100d557806313af40351461025457806366b42dcb1461029757806369fe0e2d1461037b5780637958533a146103a85780637b1a547c146103ff578063891de9ed146105035780638da5cb5b146106595780639890220b146106b05780639f181b5e146106c7578063a02b161e146106f2578063b72e717d1461071f578063dd93890b14610888578063ddca3f43146108d1575b600080fd5b3480156100e157600080fd5b50610100600480360381019080803590602001909291905050506108fc565b604051808673ffffffffffffffffffffffffffffffffffffffff1673ffffffffffffffffffffffffffffffffffffffff16815260200180602001858152602001806020018473ffffffffffffffffffffffffffffffffffffffff1673ffffffffffffffffffffffffffffffffffffffff168152602001838103835287818151815260200191508051906020019080838360005b838110156101ae578082015181840152602081019050610193565b50505050905090810190601f1680156101db5780820380516001836020036101000a031916815260200191505b50838103825285818151815260200191508051906020019080838360005b838110156102145780820151818401526020810190506101f9565b50505050905090810190601f1680156102415780820380516001836020036101000a031916815260200191505b5097505050505050505060405180910390f35b34801561026057600080fd5b50610295600480360381019080803573ffffffffffffffffffffffffffffffffffffffff169060200190929190505050610ac3565b005b610361600480360381019080803573ffffffffffffffffffffffffffffffffffffffff169060200190929190803590602001908201803590602001908080601f016020809104026020016040519081016040528093929190818152602001838380828437820191505050505050919291929080359060200190929190803590602001908201803590602001908080601f0160208091040260200160405190810160405280939291908181526020018383808284378201915050505050509192919290505050610bdc565b604051808215151515815260200191505060405180910390f35b34801561038757600080fd5b506103a660048036038101908080359060200190929190505050610bf5565b005b3480156103b457600080fd5b506103e1600480360381019080803590602001909291908035600019169060200190929190505050610c5a565b60405180826000191660001916815260200191505060405180910390f35b6104e9600480360381019080803573ffffffffffffffffffffffffffffffffffffffff169060200190929190803590602001908201803590602001908080601f016020809104026020016040519081016040528093929190818152602001838380828437820191505050505050919291929080359060200190929190803590602001908201803590602001908080601f0160208091040260200160405190810160405280939291908181526020018383808284378201915050505050509192919290803573ffffffffffffffffffffffffffffffffffffffff169060200190929190505050610c9e565b604051808215151515815260200191505060405180910390f35b34801561050f57600080fd5b5061056a600480360381019080803590602001908201803590602001908080601f01602080910402602001604051908101604052809392919081815260200183838082843782019150505050505091929192905050506110ee565b604051808681526020018573ffffffffffffffffffffffffffffffffffffffff1673ffffffffffffffffffffffffffffffffffffffff168152602001848152602001806020018373ffffffffffffffffffffffffffffffffffffffff1673ffffffffffffffffffffffffffffffffffffffff168152602001828103825284818151815260200191508051906020019080838360005b8381101561061a5780820151818401526020810190506105ff565b50505050905090810190601f1680156106475780820380516001836020036101000a031916815260200191505b50965050505050505060405180910390f35b34801561066557600080fd5b5061066e611286565b604051808273ffffffffffffffffffffffffffffffffffffffff1673ffffffffffffffffffffffffffffffffffffffff16815260200191505060405180910390f35b3480156106bc57600080fd5b506106c56112ab565b005b3480156106d357600080fd5b506106dc611366565b6040518082815260200191505060405180910390f35b3480156106fe57600080fd5b5061071d60048036038101908080359060200190929190505050611373565b005b34801561072b57600080fd5b50610760600480360381019080803573ffffffffffffffffffffffffffffffffffffffff169060200190929190505050611633565b6040518086815260200180602001858152602001806020018473ffffffffffffffffffffffffffffffffffffffff1673ffffffffffffffffffffffffffffffffffffffff168152602001838103835287818151815260200191508051906020019080838360005b838110156107e25780820151818401526020810190506107c7565b50505050905090810190601f16801561080f5780820380516001836020036101000a031916815260200191505b50838103825285818151815260200191508051906020019080838360005b8381101561084857808201518184015260208101905061082d565b50505050905090810190601f1680156108755780820380516001836020036101000a031916815260200191505b5097505050505050505060405180910390f35b34801561089457600080fd5b506108cf6004803603810190808035906020019092919080356000191690602001909291908035600019169060200190929190505050611817565b005b3480156108dd57600080fd5b506108e6611920565b6040518082815260200191505060405180910390f35b600060606000606060008060038781548110151561091657fe5b906000526020600020906006020190508060000160009054906101000a900473ffffffffffffffffffffffffffffffffffffffff169550806001018054600181600116156101000203166002900480601f0160208091040260200160405190810160405280929190818152602001828054600181600116156101000203166002900480156109e55780601f106109ba576101008083540402835291602001916109e5565b820191906000526020600020905b8154815290600101906020018083116109c857829003601f168201915b5050505050945080600201549350806003018054600181600116156101000203166002900480601f016020809104026020016040519081016040528092919081815260200182805460018160011615610100020316600290048015610a8b5780601f10610a6057610100808354040283529160200191610a8b565b820191906000526020600020905b815481529060010190602001808311610a6e57829003601f168201915b505050505092508060040160009054906101000a900473ffffffffffffffffffffffffffffffffffffffff1691505091939590929450565b6000809054906101000a900473ffffffffffffffffffffffffffffffffffffffff1673ffffffffffffffffffffffffffffffffffffffff163373ffffffffffffffffffffffffffffffffffffffff16141515610b1e57600080fd5b8073ffffffffffffffffffffffffffffffffffffffff166000809054906101000a900473ffffffffffffffffffffffffffffffffffffffff1673ffffffffffffffffffffffffffffffffffffffff167f70aea8d848e8a90fb7661b227dc522eb6395c3dac71b63cb59edd5c9899b236460405160405180910390a3806000806101000a81548173ffffffffffffffffffffffffffffffffffffffff021916908373ffffffffffffffffffffffffffffffffffffffff16021790555050565b6000610beb8585858533610c9e565b9050949350505050565b6000809054906101000a900473ffffffffffffffffffffffffffffffffffffffff1673ffffffffffffffffffffffffffffffffffffffff163373ffffffffffffffffffffffffffffffffffffffff16141515610c5057600080fd5b8060048190555050565b6000600383815481101515610c6b57fe5b90600052602060002090600602016005016000836000191660001916815260200190815260200160002054905092915050565b6000600454341015610caf576110e5565b856000600160008373ffffffffffffffffffffffffffffffffffffffff1673ffffffffffffffffffffffffffffffffffffffff16815260200190815260200160002054141515610cfe576110e3565b8560038151141515610d0f576110e1565b8660006002826040518082805190602001908083835b602083101515610d4a5780518252602082019150602081019050602083039250610d25565b6001836020036101000a038019825116818451168082178552505050505050905001915050908152602001604051809103902054141515610d8a576110df565b600360a0604051908101604052808b73ffffffffffffffffffffffffffffffffffffffff1681526020018a81526020018981526020018881526020018773ffffffffffffffffffffffffffffffffffffffff168152509080600181540180825580915050906001820390600052602060002090600602016000909192909190915060008201518160000160006101000a81548173ffffffffffffffffffffffffffffffffffffffff021916908373ffffffffffffffffffffffffffffffffffffffff1602179055506020820151816001019080519060200190610e6e929190611926565b50604082015181600201556060820151816003019080519060200190610e95929190611926565b5060808201518160040160006101000a81548173ffffffffffffffffffffffffffffffffffffffff021916908373ffffffffffffffffffffffffffffffffffffffff160217905550505050600380549050600160008b73ffffffffffffffffffffffffffffffffffffffff1673ffffffffffffffffffffffffffffffffffffffff168152602001908152602001600020819055506003805490506002896040518082805190602001908083835b602083101515610f675780518252602082019150602081019050602083039250610f42565b6001836020036101000a038019825116818451168082178552505050505050905001915050908152602001604051809103902081905550600160038054905003886040518082805190602001908083835b602083101515610fdd5780518252602082019150602081019050602083039250610fb8565b6001836020036101000a03801982511681845116808217855250505050505090500191505060405180910390207f25074d730da65a10e171fe5589d2182313ef00da38d23a9ae3b78923568bdf2d8b89604051808373ffffffffffffffffffffffffffffffffffffffff1673ffffffffffffffffffffffffffffffffffffffff16815260200180602001828103825283818151815260200191508051906020019080838360005b8381101561109f578082015181840152602081019050611084565b50505050905090810190601f1680156110cc5780820380516001836020036101000a031916815260200191505b50935050505060405180910390a3600193505b505b505b505b95945050505050565b6000806000606060008060016002886040518082805190602001908083835b602083101515611132578051825260208201915060208101905060208303925061110d565b6001836020036101000a03801982511681845116808217855250505050505090500191505090815260200160405180910390205403955060038681548110151561117857fe5b906000526020600020906006020190508060000160009054906101000a900473ffffffffffffffffffffffffffffffffffffffff16945080600201549350806003018054600181600116156101000203166002900480601f01602080910402602001604051908101604052809291908181526020018280546001816001161561010002031660029004801561124e5780601f106112235761010080835404028352916020019161124e565b820191906000526020600020905b81548152906001019060200180831161123157829003601f168201915b505050505092508060040160009054906101000a900473ffffffffffffffffffffffffffffffffffffffff1691505091939590929450565b6000809054906101000a900473ffffffffffffffffffffffffffffffffffffffff1681565b6000809054906101000a900473ffffffffffffffffffffffffffffffffffffffff1673ffffffffffffffffffffffffffffffffffffffff163373ffffffffffffffffffffffffffffffffffffffff1614151561130657600080fd5b3373ffffffffffffffffffffffffffffffffffffffff166108fc3073ffffffffffffffffffffffffffffffffffffffff16319081150290604051600060405180830381858888f19350505050158015611363573d6000803e3d6000fd5b50565b6000600380549050905090565b6000809054906101000a900473ffffffffffffffffffffffffffffffffffffffff1673ffffffffffffffffffffffffffffffffffffffff163373ffffffffffffffffffffffffffffffffffffffff161415156113ce57600080fd5b806003828154811015156113de57fe5b9060005260206000209060060201600101604051808280546001816001161561010002031660029004801561144a5780601f1061142857610100808354040283529182019161144a565b820191906000526020600020905b815481529060010190602001808311611436575b505091505060405180910390207f96e76fa77fea85d8abeb7533fdb8288c214bb1dcf1f867c8f36a95f1f509c17560405160405180910390a36001600060038381548110151561149657fe5b906000526020600020906006020160000160009054906101000a900473ffffffffffffffffffffffffffffffffffffffff1673ffffffffffffffffffffffffffffffffffffffff1673ffffffffffffffffffffffffffffffffffffffff16815260200190815260200160002060009055600260038281548110151561151757fe5b906000526020600020906006020160010160405180828054600181600116156101000203166002900480156115835780601f10611561576101008083540402835291820191611583565b820191906000526020600020905b81548152906001019060200180831161156f575b50509150509081526020016040518091039020600090556003818154811015156115a957fe5b9060005260206000209060060201600080820160006101000a81549073ffffffffffffffffffffffffffffffffffffffff02191690556001820160006115ef91906119a6565b600282016000905560038201600061160791906119a6565b6004820160006101000a81549073ffffffffffffffffffffffffffffffffffffffff0219169055505050565b600060606000606060008060018060008973ffffffffffffffffffffffffffffffffffffffff1673ffffffffffffffffffffffffffffffffffffffff1681526020019081526020016000205403955060038681548110151561169157fe5b90600052602060002090600602019050806001018054600181600116156101000203166002900480601f0160208091040260200160405190810160405280929190818152602001828054600181600116156101000203166002900480156117395780601f1061170e57610100808354040283529160200191611739565b820191906000526020600020905b81548152906001019060200180831161171c57829003601f168201915b5050505050945080600201549350806003018054600181600116156101000203166002900480601f0160208091040260200160405190810160405280929190818152602001828054600181600116156101000203166002900480156117df5780601f106117b4576101008083540402835291602001916117df565b820191906000526020600020905b8154815290600101906020018083116117c257829003601f168201915b505050505092508060040160009054906101000a900473ffffffffffffffffffffffffffffffffffffffff1691505091939590929450565b823373ffffffffffffffffffffffffffffffffffffffff1660038281548110151561183e57fe5b906000526020600020906006020160040160009054906101000a900473ffffffffffffffffffffffffffffffffffffffff1673ffffffffffffffffffffffffffffffffffffffff161415156118925761191a565b816003858154811015156118a257fe5b90600052602060002090600602016005016000856000191660001916815260200190815260200160002081600019169055508260001916847f7991c63a749706fd298fc2387764d640be6e714307b6357b1d3c2ce35cba3b528460405180826000191660001916815260200191505060405180910390a35b50505050565b60045481565b828054600181600116156101000203166002900490600052602060002090601f016020900481019282601f1061196757805160ff1916838001178555611995565b82800160010185558215611995579182015b82811115611994578251825591602001919060010190611979565b5b5090506119a291906119ee565b5090565b50805460018160011615610100020316600290046000825580601f106119cc57506119eb565b601f0160209004906000526020600020908101906119ea91906119ee565b5b50565b611a1091905b80821115611a0c5760008160009055506001016119f4565b5090565b905600a165627a7a7230582080e2c882af58431b58ab3aaf028c5b23d242e225242c538fe0d0072a8c03147a0029",
  "source": "//! The token-registry contract.\n//!\n//! Copyright 2017 Gavin Wood, Parity Technologies Ltd.\n//!\n//! Licensed under the Apache License, Version 2.0 (the \"License\");\n//! you may not use this file except in compliance with the License.\n//! You may obtain a copy of the License at\n//!\n//!     http://www.apache.org/licenses/LICENSE-2.0\n//!\n//! Unless required by applicable law or agreed to in writing, software\n//! distributed under the License is distributed on an \"AS IS\" BASIS,\n//! WITHOUT WARRANTIES OR CONDITIONS OF ANY KIND, either express or implied.\n//! See the License for the specific language governing permissions and\n//! limitations under the License.\n\npragma solidity ^0.4.0;\n\nimport \"./Owned.sol\";\n\n\ncontract TokenReg is Owned {\n\tstruct Token {\n\t\taddress addr;\n\t\tstring tla;\n\t\tuint base;\n\t\tstring name;\n\t\taddress owner;\n\t\tmapping (bytes32 => bytes32) meta;\n\t}\n\n\tmodifier whenFeePaid {\n\t\tif (msg.value < fee)\n\t\t\treturn;\n\t\t_;\n\t}\n\n\tmodifier whenAddressFree(address _addr) {\n\t\tif (mapFromAddress[_addr] != 0)\n\t\t\treturn;\n\t\t_;\n\t}\n\n\tmodifier whenTlaFree(string _tla) {\n\t\tif (mapFromTLA[_tla] != 0)\n\t\t\treturn;\n\t\t_;\n\t}\n\n\tmodifier whenIsTla(string _tla) {\n\t\tif (bytes(_tla).length != 3)\n\t\t\treturn;\n\t\t_;\n\t}\n\n\tmodifier whenHasTla(string _tla) {\n\t\tif (mapFromTLA[_tla] == 0)\n\t\t\treturn;\n\t\t_;\n\t}\n\n\tmodifier onlyTokenOwner(uint _id) {\n\t\tif (tokens[_id].owner != msg.sender)\n\t\t\treturn;\n\t\t_;\n\t}\n\n\tevent Registered(string indexed tla, uint indexed id, address addr, string name);\n\tevent Unregistered(string indexed tla, uint indexed id);\n\tevent MetaChanged(uint indexed id, bytes32 indexed key, bytes32 value);\n\n\tfunction register(\n\t\taddress _addr,\n\t\tstring _tla,\n\t\tuint _base,\n\t\tstring _name)\n\t\tpayable\n\t\tpublic\n\t\treturns (bool)\n\t{\n\t\treturn registerAs(\n\t\t\t_addr,\n\t\t\t_tla,\n\t\t\t_base,\n\t\t\t_name,\n\t\t\tmsg.sender);\n\t}\n\n\tfunction registerAs(\n\t\taddress _addr,\n\t\tstring _tla,\n\t\tuint _base,\n\t\tstring _name,\n\t\taddress _owner)\n\t\tpayable\n\t\twhenFeePaid\n\t\twhenAddressFree(_addr)\n\t\twhenIsTla(_tla)\n\t\twhenTlaFree(_tla)\n\t\tpublic returns (bool)\n\t{\n\t\ttokens.push(Token(\n\t\t\t_addr,\n\t\t\t_tla,\n\t\t\t_base,\n\t\t\t_name,\n\t\t\t_owner));\n\t\tmapFromAddress[_addr] = tokens.length;\n\t\tmapFromTLA[_tla] = tokens.length;\n\t\temit Registered(\n\t\t\t_tla,\n\t\t\ttokens.length - 1,\n\t\t\t_addr,\n\t\t\t_name);\n\t\treturn true;\n\t}\n\n\tfunction unregister(uint _id) onlyOwner public {\n\t\temit Unregistered(tokens[_id].tla, _id);\n\t\tdelete mapFromAddress[tokens[_id].addr];\n\t\tdelete mapFromTLA[tokens[_id].tla];\n\t\tdelete tokens[_id];\n\t}\n\n\tfunction setFee(uint _fee) onlyOwner public {\n\t\tfee = _fee;\n\t}\n\n\tfunction tokenCount() view public returns (uint) { return tokens.length; }\n\tfunction token(uint _id) view public returns (address addr, string tla, uint base, string name, address owner) {\n\t\tToken storage t = tokens[_id];\n\t\taddr = t.addr;\n\t\ttla = t.tla;\n\t\tbase = t.base;\n\t\tname = t.name;\n\t\towner = t.owner;\n\t}\n\n\tfunction fromAddress(address _addr) view public returns (uint id, string tla, uint base, string name, address owner) {\n\t\tid = mapFromAddress[_addr] - 1;\n\t\tToken storage t = tokens[id];\n\t\ttla = t.tla;\n\t\tbase = t.base;\n\t\tname = t.name;\n\t\towner = t.owner;\n\t}\n\n\tfunction fromTLA(string _tla) view public returns (uint id, address addr, uint base, string name, address owner) {\n\t\tid = mapFromTLA[_tla] - 1;\n\t\tToken storage t = tokens[id];\n\t\taddr = t.addr;\n\t\tbase = t.base;\n\t\tname = t.name;\n\t\towner = t.owner;\n\t}\n\n\tfunction meta(uint _id, bytes32 _key) view public returns (bytes32) {\n\t\treturn tokens[_id].meta[_key];\n\t}\n\n\tfunction setMeta(uint _id, bytes32 _key, bytes32 _value) onlyTokenOwner(_id) public {\n\t\ttokens[_id].meta[_key] = _value;\n\t\temit MetaChanged(_id, _key, _value);\n\t}\n\n\tfunction drain() onlyOwner public {\n\t\tmsg.sender.transfer(address(this).balance);\n\t}\n\n\tmapping (address => uint) mapFromAddress;\n\tmapping (string => uint) mapFromTLA;\n\tToken[] tokens;\n\tuint public fee = 1 ether;\n}\n",
  "sourcePath": "/home/sorpaas/repos/token-registry/contracts/TokenReg.sol",
  "compiler": {
    "name": "solc",
    "version": "0.4.23+commit.124ca40d.Emscripten.clang"
  },
  "schemaVersion": "2.0.0",
  "updatedAt": "2018-05-09T12:04:35.742Z"
}